:100000000C9437000C94B8000C94B8000C94B80011
:100010000C9461000C94B8000C94B8000C94B800D7
:100020000C94B8000C94B8000C94B8000C94B80070
:100030000C94B8000C94B8000C94B8000C94B80060
:100040000C94B8000C94B8000C94B8000C94B80050
:100050000C94B8000C94B8000C94B8000C94B80040
:100060000C94B8000C94B800010001018000112428
:100070001FBECFEFD8E0DEBFCDBFE8E6F0E040E046
:1000800017C0B591A59135912591059107FD0CC03B
:1000900095918591EF01F92FE82F05900D92A21708
:1000A000B307D9F7FE0104C01D92A217B307E1F709
:1000B000ED36F40731F70E949B000C94AD00F894E4
:0200C000FFCF70
:1000C2001F920F920FB60F9211248F939F9387E87E
:1000D20093E10197F1F700C00000349905C08091C7
:1000E20000018F5F8093000187E893E10197F1F7A8
:1000F20000C00000359905C08091000181508093B5
:1001020000019F918F910F900FBE0F901F90189535
:1001120087B18F7C87B988B1806388B9E8E6F0E05F
:10012200808182608083ECE6F0E08081806380835E
:040132007894089520
:100136000E94890098B180910001907F8F70892B71
:1001460088B985B19091000192959F70807F892B27
:0401560085B9F0CFA8
:10015A00EC010E94BD000E94BC00CE010E94BE00BC
:06016A00CE010E94BA0064
:040170000C940000EB
:040174000E945F0086
:020178000895E8
:02017A000895E6
:02017C000895E4
:00000001FF
